{
  "contractName": "NameRegistry",
  "abi": [
    {
      "anonymous": false,
      "inputs": [
        {
          "indexed": false,
          "internalType": "address",
          "name": "sender",
          "type": "address"
        }
      ],
      "name": "NameCommitted",
      "type": "event"
    },
    {
      "anonymous": false,
      "inputs": [
        {
          "indexed": false,
          "internalType": "address",
          "name": "sender",
          "type": "address"
        }
      ],
      "name": "NameRevealed",
      "type": "event"
    },
    {
      "constant": true,
      "inputs": [
        {
          "internalType": "uint256",
          "name": "",
          "type": "uint256"
        }
      ],
      "name": "names",
      "outputs": [
        {
          "internalType": "string",
          "name": "",
          "type": "string"
        }
      ],
      "payable": false,
      "stateMutability": "view",
      "type": "function"
    },
    {
      "constant": false,
      "inputs": [
        {
          "internalType": "string",
          "name": "_name",
          "type": "string"
        }
      ],
      "name": "commit",
      "outputs": [],
      "payable": false,
      "stateMutability": "nonpayable",
      "type": "function"
    },
    {
      "constant": false,
      "inputs": [
        {
          "internalType": "string",
          "name": "_name",
          "type": "string"
        }
      ],
      "name": "reveal",
      "outputs": [],
      "payable": false,
      "stateMutability": "nonpayable",
      "type": "function"
    },
    {
      "constant": true,
      "inputs": [],
      "name": "length",
      "outputs": [
        {
          "internalType": "uint256",
          "name": "",
          "type": "uint256"
        }
      ],
      "payable": false,
      "stateMutability": "view",
      "type": "function"
    }
  ],
  "bytecode": "0x608060405234801561001057600080fd5b50610a0d806100206000396000f3fe608060405234801561001057600080fd5b506004361061004c5760003560e01c80631f7b6d32146100515780634622ab031461006f5780634c261247146101165780639867db74146101d1575b600080fd5b61005961028c565b6040518082815260200191505060405180910390f35b61009b6004803603602081101561008557600080fd5b8101908080359060200190929190505050610299565b6040518080602001828103825283818151815260200191508051906020019080838360005b838110156100db5780820151818401526020810190506100c0565b50505050905090810190601f1680156101085780820380516001836020036101000a031916815260200191505b509250505060405180910390f35b6101cf6004803603602081101561012c57600080fd5b810190808035906020019064010000000081111561014957600080fd5b82018360208201111561015b57600080fd5b8035906020019184600183028401116401000000008311171561017d57600080fd5b91908080601f016020809104026020016040519081016040528093929190818152602001838380828437600081840152601f19601f820116905080830192505050505050509192919290505050610352565b005b61028a600480360360208110156101e757600080fd5b810190808035906020019064010000000081111561020457600080fd5b82018360208201111561021657600080fd5b8035906020019184600183028401116401000000008311171561023857600080fd5b91908080601f016020809104026020016040519081016040528093929190818152602001838380828437600081840152601f19601f82011690508083019250505050505050919291929050505061072c565b005b6000600280549050905090565b600281815481106102a657fe5b906000526020600020016000915090508054600181600116156101000203166002900480601f01602080910402602001604051908101604052809291908181526020018280546001816001161561010002031660029004801561034a5780601f1061031f5761010080835404028352916020019161034a565b820191906000526020600020905b81548152906001019060200180831161032d57829003601f168201915b505050505081565b6000801b6000803373ffffffffffffffffffffffffffffffffffffffff1673ffffffffffffffffffffffffffffffffffffffff168152602001908152602001600020541415610409576040517f08c379a00000000000000000000000000000000000000000000000000000000081526004018080602001828103825260198152602001807f596f75206861766520746f20636f6d6d69742066697273742e0000000000000081525060200191505060405180910390fd5b60001515600160003373ffffffffffffffffffffffffffffffffffffffff1673ffffffffffffffffffffffffffffffffffffffff16815260200190815260200160002060009054906101000a900460ff161515146104cf576040517f08c379a00000000000000000000000000000000000000000000000000000000081526004018080602001828103825260198152602001807f596f752063616e2072657665616c206f6e6c79206f6e63652e0000000000000081525060200191505060405180910390fd5b60003382604051602001808373ffffffffffffffffffffffffffffffffffffffff1673ffffffffffffffffffffffffffffffffffffffff1660601b815260140182805190602001908083835b6020831061053e578051825260208201915060208101905060208303925061051b565b6001836020036101000a03801982511681845116808217855250505050505090500192505050604051602081830303815290604052805190602001209050806000803373ffffffffffffffffffffffffffffffffffffffff1673ffffffffffffffffffffffffffffffffffffffff168152602001908152602001600020541461062f576040517f08c379a000000000000000000000000000000000000000000000000000000000815260040180806020018281038252601e8152602001807f596f7520636f6d6d6974746564206120646966666572656e74206e616d65000081525060200191505060405180910390fd5b600282908060018154018082558091505090600182039060005260206000200160009091929091909150908051906020019061066c929190610933565b505060018060003373ffffffffffffffffffffffffffffffffffffffff1673ffffffffffffffffffffffffffffffffffffffff16815260200190815260200160002060006101000a81548160ff0219169083151502179055507fe215c2640b280c77e151c7364c83b28605918ea36b5652d18453d1416bef385533604051808273ffffffffffffffffffffffffffffffffffffffff1673ffffffffffffffffffffffffffffffffffffffff16815260200191505060405180910390a15050565b6000801b6000803373ffffffffffffffffffffffffffffffffffffffff1673ffffffffffffffffffffffffffffffffffffffff16815260200190815260200160002054146107e2576040517f08c379a00000000000000000000000000000000000000000000000000000000081526004018080602001828103825260198152602001807f596f752063616e20636f6d6d6974206f6e6c79206f6e63652e0000000000000081525060200191505060405180910390fd5b3381604051602001808373ffffffffffffffffffffffffffffffffffffffff1673ffffffffffffffffffffffffffffffffffffffff1660601b815260140182805190602001908083835b6020831061084f578051825260208201915060208101905060208303925061082c565b6001836020036101000a03801982511681845116808217855250505050505090500192505050604051602081830303815290604052805190602001206000803373ffffffffffffffffffffffffffffffffffffffff1673ffffffffffffffffffffffffffffffffffffffff168152602001908152602001600020819055507ff2ecf6417d2d308fb5e126ef222af8c3b8a951a9e467c942c645bdd06ba375cc33604051808273ffffffffffffffffffffffffffffffffffffffff1673ffffffffffffffffffffffffffffffffffffffff16815260200191505060405180910390a150565b828054600181600116156101000203166002900490600052602060002090601f016020900481019282601f1061097457805160ff19168380011785556109a2565b828001600101855582156109a2579182015b828111156109a1578251825591602001919060010190610986565b5b5090506109af91906109b3565b5090565b6109d591905b808211156109d15760008160009055506001016109b9565b5090565b9056fea265627a7a72315820fdfa6a87f0f830b0f72b59bf9051386d3978e7f295eae6a9ab78f8fba2f6aa3264736f6c63430005100032",
  "source": "// SPDX-License-Identifier: MIT\npragma solidity >=0.4.21 <8.10.0;\n\ncontract NameRegistry {\n    mapping (address => bytes32) private hashes;\n    mapping (address => bool) private revealed;\n    string[] public names;\n\n    event NameCommitted(address sender);\n    event NameRevealed(address sender);\n\n    function commit(string memory _name) public {\n        require(hashes[msg.sender] == 0, 'You can commit only once.');\n        hashes[msg.sender] = keccak256(abi.encodePacked(msg.sender, _name));\n\n        emit NameCommitted(msg.sender);\n    }\n\n    function reveal(string memory _name) public {\n        require(hashes[msg.sender] != 0, 'You have to commit first.');\n        require(revealed[msg.sender] == false, 'You can reveal only once.');\n\n        bytes32 hash = keccak256(abi.encodePacked(msg.sender, _name));\n        require(hashes[msg.sender] == hash, 'You committed a different name');\n\n        names.push(_name);\n        revealed[msg.sender] = true;\n\n        emit NameRevealed(msg.sender);\n    }\n\n    function length() public view returns (uint) {\n        return names.length;\n    }\n}\n",
  "sourcePath": "/Users/hiromu/Documents/Develop/Ethereum/name-registry-demo/contracts/NameRegistry.sol",
  "compiler": {
    "name": "solc",
    "version": "0.5.16+commit.9c3226ce.Emscripten.clang"
  },
  "schemaVersion": "3.4.4",
  "updatedAt": "2022-01-23T16:35:24.286Z",
  "networkType": "ethereum",
  "devdoc": {
    "methods": {}
  },
  "userdoc": {
    "methods": {}
  }
}